:04100000DDEF11F01F
:08100800046ED8CF05F0E0CF23
:1010100006F00001E9CF0CF0EACF07F0E1CF08F0CD
:10102000E2CF09F0D9CF0AF0DACF0BF0F3CF12F00C
:10103000F4CF13F0FACF14F0F5CF15F0F6CF16F089
:10104000F7CF17F0F8CF18F0FBCF19F000C00EF073
:1010500001C00FF002C010F003C011F0F2AA34EF8B
:1010600008F0F2B45FEF08F00EC000F00FC001F01E
:1010700010C002F011C003F00CC0E9FF07C0EAFF86
:10108000078E08C0E1FF09C0E2FF0AC0D9FF0BC00C
:10109000DAFF12C0F3FF13C0F4FF14C0FAFF15C04B
:1010A000F5FF16C0F6FF17C0F7FF18C0F8FF19C00C
:1010B000FBFF045006C0E0FF05C0D8FF100095926A
:1010C0008C72FD0ED76EE80ED66EF29434EF08F0F7
:1010D00061774A6A496A4A522CE149500F0829E36C
:1010E000D8904934026E4A34036E0250680F016E84
:1010F000000E032203C08CF0D8904934026E4A34AB
:10110000036E0250210FE96E000E0320EA6EECCF51
:1011100003F0ED52EFCF8DF08CC0EAFF01C0E9FF84
:1011200003C0ECFFED528DC0EFFF492AD8B44A2A24
:10113000D2D7506A4F6A4A6A030E496E4A5230E16A
:1011400049500F082DE3D8904F34026E5034036E8F
:101150000250210F016E000E032203C08CF0D890C4
:101160004934026E4A34036E0250680FE96E000E75
:101170000320EA6EECCF03F0ED52EFCF8DF08CC080
:10118000EAFF01C0E9FF03C0ECFFED528DC0EFFFA5
:101190004F2AD8B4502A040E4926000E4A22CED730
:1011A0004A6A020E496E4A5230E149500E082DE358
:1011B000D8904F34026E5034036E0250210F016EEE
:1011C000000E032203C08CF0D8904934026E4A34DA
:1011D000036E0250680FE96E000E0320EA6EECCF3A
:1011E00003F0ED52EFCF8DF08CC0EAFF01C0E9FFB4
:1011F00003C0ECFFED528DC0EFFF4F2AD8B4502A48
:10120000040E4926000E4A22CED74A6A010E496EC4
:101210004A5230E149500D082DE3D8904F34026E08
:101220005034036E0250210F016E000E032203C0E2
:101230008CF0D8904934026E4A34036E0250680F25
:10124000E96E000E0320EA6EECCF03F0ED52EFCF13
:101250008DF08CC0EAFF01C0E9FF03C0ECFFED5246
:101260008DC0EFFF4F2AD8B4502A040E4926000E35
:101270004A22CED74A6A496A4A5230E149500C089C
:101280002DE3D8904F34026E5034036E0250210F7C
:10129000016E000E032203C08CF0D8904934026E18
:1012A0004A34036E0250680FE96E000E0320EA6EA6
:1012B000ECCF03F0ED52EFCF8DF08CC0EAFF01C010
:1012C000E9FF03C0ECFFED528DC0EFFF4F2AD8B409
:1012D000502A040E4926000E4A22CED7000E61B7CE
:1012E000010E016E12009A519C03F3CF01F0F4CF6E
:1012F00000F09D03F35000269B519C03F350002007
:10130000026EBBEF09F0016A026A006A036A9D512E
:1013100002E19C5118E0100E9E6FD8909A379B37CF
:10132000003603369D51035C02E19C51005C07E3EB
:101330009C51005ED8A003069D51035ED880013603
:1013400002369E2FEAD712008E518C5D966F8F5118
:101350008D59976F9251945D006E93519559036E1C
:1013600000C098F0996F97C09BF096C09AF09D6F5F
:1013700000C09CF0B8D702C097F001C096F08E5123
:10138000905D006E8F519159036E00C098F0996F77
:1013900002C09BF001C09AF09D6F00C09CF0B3DFCB
:1013A00002C097F001C096F092510124016E935152
:1013B0000220036E026E12009351070B006E9331F0
:1013C000016E013201321F0E011601509525E96EA2
:1013D000000E9621EA6E016A012A002A01D0013628
:1013E000002EFDD7945303E00150EF1203D0011EED
:1013F0000150EF1612004A6A496A4A5227E14950E1
:101400000F0824E3D8904934026E4A34036E025028
:10141000210FE96E000E0320EA6EECCF8FF0ED5243
:10142000EFCF8EF08EC093F0946B0F0E966F890EF7
:10143000956FC2DF8EC093F0946B0F0E966F920E75
:10144000956FBADF492AD8B44A2AD7D741C093F05A
:10145000946B0F0E966F890E956FAEDF41C093F0BF
:10146000946B0F0E966F920E956FA6DF43C093F0AC
:10147000946B0F0E966F890E956F9EDF43C093F0AD
:10148000946B0F0E966F920E956F96DF45C093F09A
:10149000946B0F0E966F890E956F8EDF45C093F09B
:1014A000946B0F0E966F920E956F86DF47C093F088
:1014B000946B0F0E966F890E956F7EDF47C093F089
:1014C000946B0F0E966F920E956F76DF120091510E
:1014D000FC0FD8B00BD1040F78EF0BF041C093F0A4
:1014E000010E946F0F0E966F890E956F65DF41C0E8
:1014F00093F0946B0F0E966F920E956F5DDF43C065
:1015000093F0946B0F0E966F890E956F55DF43C065
:1015100093F0946B0F0E966F920E956F4DDF45C052
:1015200093F0946B0F0E966F890E956F45DF45C053
:1015300093F0946B0F0E966F920E956F3DDF47C040
:1015400093F0946B0F0E966F890E956F35DF47C041
:1015500093F0946B0F0E966F920E956F2DDFC6D0A1
:1015600043C093F0010E946F0F0E966F890E956F26
:1015700023DF43C093F0946B0F0E966F920E956F1E
:101580001BDF41C093F0946B0F0E966F890E956F21
:1015900013DF41C093F0946B0F0E966F920E956F10
:1015A0000BDF45C093F0946B0F0E966F890E956F0D
:1015B00003DF45C093F0946B0F0E966F920E956FFC
:1015C000FBDE47C093F0946B0F0E966F890E956FFC
:1015D000F3DE47C093F0946B0F0E966F920E956FEB
:1015E000EBDE84D045C093F0010E946F0F0E966F22
:1015F000890E956FE1DE45C093F0946B0F0E966FE8
:10160000920E956FD9DE41C093F0946B0F0E966FDA
:10161000890E956FD1DE41C093F0946B0F0E966FDB
:10162000920E956FC9DE43C093F0946B0F0E966FC8
:10163000890E956FC1DE43C093F0946B0F0E966FC9
:10164000920E956FB9DE47C093F0946B0F0E966FB4
:10165000890E956FB1DE47C093F0946B0F0E966FB5
:10166000920E956FA9DE42D047C093F0010E946FA1
:101670000F0E966F890E956F9FDE47C093F0946BA7
:101680000F0E966F920E956F97DE41C093F0946B9C
:101690000F0E966F890E956F8FDE41C093F0946B9D
:1016A0000F0E966F920E956F87DE43C093F0946B8A
:1016B0000F0E966F890E956F7FDE43C093F0946B8B
:1016C0000F0E966F920E956F77DE45C093F0946B78
:1016D0000F0E966F890E956F6FDE45C093F0946B79
:1016E0000F0E966F920E956F67DE00D08FEF0BF0A6
:1016F000E824F76AF736110FF66E170EF722000E80
:10170000F86EFB6E0A00F550FA6E0800F550F96E9F
:10171000DC146015E415681690C091F0D8D68F518E
:10172000010A05E0030A08E0010A0BE00FD0040EED
:10173000896F080E8A6F0ED0080E896F0C0E8A6FA3
:1017400009D00C0E896F100E8A6F04D0896B040EBD
:101750008A6F00D0506A4F6A4A6A89C049F04A527B
:101760003DE18A51495C3AE28EC091F0926B4F5054
:10177000006E05E0D89092339133002EFBD7915143
:10178000010B006E036A0050031021E0D890493429
:10179000026E4A34036E0250210FE96E000E0320E0
:1017A000EA6EECCF92F0ED52EFCF91F091C093F052
:1017B000010E946F0F0E966F890E956FFDDD91C02F
:1017C00093F0946B0F0E966F920E956FF5DD4F2A86
:1017D000D8B4502A492AD8B44A2AC1D71200010ED7
:1017E0008E5F0CE3EA6A8E0EE96EEF5007E0020EA0
:1017F000006E002EFED700D0EF2EF9D712005B50FE
:10180000140805E15C5203E163DC5C6A5B6A5A6AB6
:10181000596A5A5245E159503B0842E34D5003087A
:1018200004E14E5202E1618108D04D5206E14E5270
:1018300004E1E1DD4E6A4D6A6191526A516A525289
:101840002BE15150030828E34C6A4B6A4C521CE1CF
:101850004B50030819E34D3C04D04E3C02D0CBDD85
:101860000FD0640E4D24E96E000E4E20EA6EEFCFCD
:101870008BF08BC08EF04BC08FF051C090F04CDFDE
:101880004B2AD8B44C2AE2D7C80E8E6FA8DFB3DD3E
:10189000512AD8B4522AD3D7592AD8B45A2AB9D7F8
:1018A0005B2AD8B45C2A61A105D04D50D8B44E064D
:1018B0004D0603D04D2AD8B44E2AF1EF12F08C51C8
:1018C000000A28E0010A28E0030A31E0010A3AE0B0
:1018D000070A43E0010A4CE0030A5CE0010AD8B4BD
:1018E00072D00F0AD8B48FD0010AD8B4ACD0030A92
:1018F000D8B4C9D0010AD8B4E6D0070AD8B403D105
:10190000010AD8B420D1030AD8B43DD1010AD8B411
:101910005AD17AD170DD99D1010E8E6F8F6B8DC047
:1019200090F0FADEC80E8E6F5ADF65DD8ED1030EA1
:101930008E6F8F6B8DC090F0EFDEC80E8E6F4FDF15
:101940005ADD83D1070E8E6F8F6B8DC090F0E4DE71
:10195000C80E8E6F44DF4FDD78D10F0E8E6F8F6B08
:101960008DC090F0D9DEC80E8E6F39DF44DD6DD1A9
:101970000F0E8E6F8F6B8DC090F0CEDE080E8E6FC7
:10198000010E8F6F8DC090F0C7DEC80E8E6F27DFFF
:1019900032DD5BD10F0E8E6F8F6B8DC090F0BCDE91
:1019A000080E8E6F010E8F6F8DC090F0B5DE080EA1
:1019B0008E6F020E8F6F8DC090F0AEDEC80E8E6FF0
:1019C0000EDF19DD42D10F0E8E6F8F6B8DC090F040
:1019D000A3DE080E8E6F010E8F6F8DC090F09CDE1F
:1019E000080E8E6F020E8F6F8DC090F095DE080E80
:1019F0008E6F030E8F6F8DC090F08EDEC80E8E6FCF
:101A0000EEDEF9DC22D10F0E8E6F8F6B8DC090F061
:101A100083DE080E8E6F010E8F6F8DC090F07CDE1E
:101A2000080E8E6F020E8F6F8DC090F075DE0C0E5B
:101A30008E6F030E8F6F8DC090F06EDEC80E8E6FAE
:101A4000CEDED9DC02D10F0E8E6F8F6B8DC090F081
:101A500063DE080E8E6F010E8F6F8DC090F05CDE1E
:101A6000080E8E6F020E8F6F8DC090F055DE0E0E39
:101A70008E6F030E8F6F8DC090F04EDEC80E8E6F8E
:101A8000AEDEB9DCE2D00F0E8E6F8F6B8DC090F0A2
:101A900043DE080E8E6F010E8F6F8DC090F03CDE1E
:101AA000080E8E6F020E8F6F8DC090F035DE0F0E18
:101AB0008E6F030E8F6F8DC090F02EDEC80E8E6F6E
:101AC0008EDE99DCC2D00F0E8E6F8F6B8DC090F0C2
:101AD00023DE080E8E6F010E8F6F8DC090F01CDE1E
:101AE000090E8E6F020E8F6F8DC090F015DE0F0EF7
:101AF0008E6F030E8F6F8DC090F00EDEC80E8E6F4E
:101B00006EDE79DCA2D00F0E8E6F8F6B8DC090F0E1
:101B100003DE090E8E6F010E8F6F8DC090F0FCDD1D
:101B2000090E8E6F020E8F6F8DC090F0F5DD0F0ED7
:101B30008E6F030E8F6F8DC090F0EEDDC80E8E6F2E
:101B40004EDE59DC82D00F0E8E6F8F6B8DC090F001
:101B5000E3DD0B0E8E6F010E8F6F8DC090F0DCDD1C
:101B6000090E8E6F020E8F6F8DC090F0D5DD0F0EB7
:101B70008E6F030E8F6F8DC090F0CEDDC80E8E6F0E
:101B80002EDE39DC62D00F0E8E6F8F6B8DC090F021
:101B9000C3DD0F0E8E6F010E8F6F8DC090F0BCDD18
:101BA000090E8E6F020E8F6F8DC090F0B5DD0F0E97
:101BB0008E6F030E8F6F8DC090F0AEDDC80E8E6FEE
:101BC0000EDE19DC42D00F0E8E6F8F6B8DC090F041
:101BD000A3DD0F0E8E6F010E8F6F8DC090F09CDD18
:101BE0000D0E8E6F020E8F6F8DC090F095DD0F0E73
:101BF0008E6F030E8F6F8DC090F08EDDC80E8E6FCE
:101C0000EEDDFBEC09F021D00F0E8E6F8F6B8DC0D7
:101C100090F082DD0F0E8E6F010E8F6F8DC090F0F1
:101C20007BDD0F0E8E6F020E8F6F8DC090F074DD16
:101C30000F0E8E6F030E8F6F8DC090F06DDDC80E8E
:101C40008E6FCDDDFBEC09F000D012008E0E006E21
:101C5000A8C001F0A7C002F0036A015209E102C066
:101C600001F0026A080E005E015202E1006A08D02B
:101C7000D89001BE04D0023601360006F9D7019E85
:101C80001200A4C0ABF0A851AB1BABAF05D0D894E9
:101C9000D890A4BFD8802FD0A4C0ABF0A7C0ACF020
:101CA000A351AC5F06E0ABAF26D0D850010AD86E86
:101CB00022D0A8C0ACF0A451AC5F06E0ABAF1BD003
:101CC000D850010AD86E17D0A9C0ACF0A551AC5FAE
:101CD00006E0ABAF10D0D850010AD86E0CD0AAC025
:101CE000ACF0A651AC5F06E0ABAF05D0D850010A0E
:101CF000D86E01D0D89012008E0E006EA351005EF7
:101D0000A4C002F0A5C001F0028E005209E0D890F4
:101D1000025202E1015204E002320132002EF7D7F2
:101D2000A4AF05D0011E021E012AD8B4022A120057
:101D3000A351D8B471D0006EA751D8B46DD000268D
:101D400004E3810E002668E204D07F0E005E64E3A7
:101D500063E0A4C0ABF0A851AB1BA48FA88FA65121
:101D6000AA03F4CFADF0A551A903F4CF03F0F3CF4C
:101D7000ACF0AA03F350AD27F450AC23000E0322BD
:101D8000A651A903F350AD27F450AC23000E026A0C
:101D900003220222A451AA03F350AC27F4500322D9
:101DA000000E0222A451A903F3500326F45002228C
:101DB000000E016A0122A651A803F350AC27F4508B
:101DC0000322000E02220122A551A803F35003268C
:101DD000F4500222000E0122A451A803F35002265F
:101DE000F4500122002A01BE05D0AC37033602367A
:101DF00001360006000EACAF0AD0032A02220122EF
:101E0000015005E1025003E1035001E1002AABBF9C
:101E1000018EABAF019E04D0006A016A026A036AB8
:101E20001200800ED8B2AC1BB16BB26BA8C0B0F080
:101E3000AC51B01BA751D8B4DCD0AF6F006EAB5122
:101E4000D8B4E0D0AF5FD8B481D03DE3ACC0B5F03A
:101E5000B58FADC0B4F0AEC0B3F0B26BD890B533AF
:101E6000B433B333B233AF2FF8D7B0AF03D0B181AF
:101E7000DDD0B191AF91B189EA6AAA0EE96EE9D0DD
:101E8000B199B0BF0AD0AFA113D0B533B433B333D7
:101E9000B233002AD8B4C5D00BD0B5BF0CD0D8907F
:101EA000B237B337B437B5370006D8B4BAD0F5D7A0
:101EB000B18D6BD0B19DA8C0B0F0A8AF02D0B58FE6
:101EC000A9D0B59FA7D0ABC0AFF0ABC000F0A75171
:101ED000AF5FA8C0B5F0B58FA9C0B4F0AAC0B3F089
:101EE000B26BD890B533B433B333B233AF2FF8D726
:101EF000B0AF03D0B1839AD0B193AF91B18BEA6AFE
:101F0000AE0EE96EA6D0B19BB0BF0AD0AFA113D080
:101F1000B533B433B333B233002AD8B482D00BD044
:101F2000B5BF0CD0D890B237B337B437B537000649
:101F3000D8B477D0F5D7B18F28D0B19FACC0B0F06E
:101F4000ACAF02D0B58F66D0B59F64D0ACC0B5F051
:101F5000B58FADC0B4F0AEC0B3F0B0AF04D0B59F94
:101F6000B18564D0B195B26BAF91EA6AAA0EE96E01
:101F700070D0B0BF1CD0A8C0B0F0AFA106D0B533B0
:101F8000B433B333B233002A4CE0B2AF0BD0B32B2F
:101F900009E1B42B07E1B52B05E1B533B433B33315
:101FA000002A3FE0B1BD86D7B1BFC7D71CD0800E95
:101FB000B51BB5AF04D03AD0ACC0B0F00AD0A8C0C1
:101FC000B0F0B55306E1B45304E1B35302E1006A43
:101FD00021D0B5BF08D0D890B237B337B437B537B2
:101FE000002EF7D71ED0B0AF02D0B58F13D0B59F5B
:101FF00011D0ABC000F0ACC0B5F0ADC0B4F0AEC015
:10200000B3F008D0A7C000F0A8C0B5F0A9C0B4F0E4
:10201000AAC0B3F0B5C001F0B4C002F0B3C003F081
:1020200034D0006A016A026A036A2FD0B26BB31F10
:10203000B41FB51FB21FB22B05E1B32B03E1B42BC4
:1020400001E1B52BB1B115D7B1B356D7B1B58AD728
:10205000B3D7EF50B32705E3B42B03E1B52BD8B4C6
:10206000AF81ED52EF50B42703E3B52BD8B4AF8165
:10207000ED52EF50EFBE01D0800AB527D8B0AF8146
:10208000B1B9FED6B1BB3FD774D71200A29196C0AA
:102090009BF095C09AF094C099F093C098F096C0C8
:1020A000A6F095C0A5F094C0A4F093C0A3F0AA6BCD
:1020B000A96BA86BA76BE5DD04E3A2819951800AA7
:1020C000996F9BC0A6F09AC0A5F099C0A4F098C0E3
:1020D000A3F0AA6BA96BA86B8E0EA76FD2DD01E2ED
:1020E00017E19BC0A6F09AC0A5F099C0A4F098C0D3
:1020F000A3F002DE02C0A8F001C0A7F0A7DD03C074
:102100009FF002C09EF001C09DF000C09CF0BDD0C9
:102110009BC0A6F09AC0A5F099C0A4F098C0A3F007
:10212000800EAA6F960EA96F180EA86F960EA76F55
:10213000A8DDD8A0A2D09BC0A6F09AC0A5F099C0F7
:10214000A4F098C0A3F0AA6BA96BA86B700EA76F40
:10215000EFDD03C0A6F002C0A5F001C0A4F000C0EE
:10216000A3F0CADD02C0A1F001C0A0F09BC0A6F0A0
:102170009AC0A5F099C0A4F098C0A3F0AA6BA96B6F
:10218000A86B700EA76FD4DD00C0A3F001C0A4F04F
:1021900002C0A5F003C0A6F0A1C0A8F0A0C0A7F09F
:1021A00055DDD882A6C0AAF0A5C0A9F0A4C0A8F0A9
:1021B000A3C0A7F003C0AEF002C0ADF001C0ACF008
:1021C00000C0ABF02EDEA66BA56BA46B8E0EA36FCA
:1021D00003C0AAF002C0A9F001C0A8F000C0A7F097
:1021E000A7DD03C09BF002C09AF001C099F000C0C7
:1021F00098F0A1C0A8F0A0C0A7F028DDA66BA56B41
:10220000A46B8E0EA36F03C0AAF002C0A9F001C098
:10221000A8F000C0A7F08CDD03C09FF002C09EF0C4
:1022200001C09DF000C09CF09BC0A6F09AC0A5F034
:1022300099C0A4F098C0A3F05FDD02C0A8F001C06F
:10224000A7F004DDD8929FC0AAF09EC0A9F09DC05F
:10225000A8F09CC0A7F003C0AEF002C0ADF001C072
:10226000ACF000C0ABF0DDDD03C09FF002C09EF01B
:1022700001C09DF000C09CF008D09BC09FF09AC0A8
:102280009EF099C09DF098C09CF09BC0A6F09AC0AB
:10229000A5F099C0A4F098C0A3F02EDD02C0A8F06C
:1022A00001C0A7F0D3DCD8829BC0AAF09AC0A9F0E5
:1022B00099C0A8F098C0A7F003C0AEF002C0ADF07E
:1022C00001C0ACF000C0ABF0ACDD03C09BF002C0BD
:1022D0009AF001C099F000C098F0A2A103D09D51DE
:1022E000800A9D6F9BC0A6F09AC0A5F099C0A4F08B
:1022F00098C0A3F0AA6BA96BA86BA76BC2DC36E0F1
:10230000A2A119D0975317E1D8829FC0AAF09EC00E
:10231000A9F09DC0A8F09CC0A7F0AE6BAD6BAC6BF4
:102320007F0EAB6F7EDD03C09FF002C09EF001C048
:102330009DF000C09CF0A2B119D0972D17D0D89273
:102340009FC0AAF09EC0A9F09DC0A8F09CC0A7F0B5
:10235000AE6BAD6BAC6B7F0EAB6F63DD03C09FF0FC
:1023600002C09EF001C09DF000C09CF096C0A6F097
:1023700095C0A5F094C0A4F093C0A3F0AA6BA96B7C
:10238000A86BA76B7EDC04E19F6B9E6B9D6B9C6BC7
:102390009CC000F09DC001F09EC002F09FC003F001
:1023A000DCEF11F092C096F091C095F090C094F0DF
:1023B0008FC093F0976B6AD61200F86AD09E078E92
:1023C0000E01550EA76EAA0EA76EBF91140EF76FE1
:1023D000060ED36F550EA76EAA0EA76EBF81AE0E66
:1023E000006E0F0E016E020EE96E000EEA6EEE6ACE
:1023F000002EFDD7012EFBD7EA6AE96A4A6A496ACC
:102400004C6A4B6A4E6A4D6A506A4F6A526A516A08
:10241000586A576A5A6A596A5C6A5B6A0001619134
:10242000619361956187626B636B0101886BFF0E3D
:102430000F01486FC29CC29E4951E00B1F09496FB2
:10244000256BD16AD26A1B6A1C6A110E216E7C0E42
:10245000226E120E236E7C0E246E160E256E7C0EDE
:10246000266E170E276E7C0E286E1D0E296E7C0EB2
:102470002A6E1E0E2B6E7C0E2C6E1F0E2D6E7C0E89
:102480002E6E100E2F6E7C0E306E1C0E316E7C0E7A
:10249000326E1B0E336E7C0E346E1A0E356E7C0E51
:1024A000366E200E376E7C0E386E210E396E7C0E25
:1024B0003A6E220E3B6E7C0E3C6E080E3D6E7C0E1C
:1024C0003E6E090E3F6E7C0E406E0F0E416E7C0E0E
:1024D000426E0E0E436E7C0E446E0D0E456E7C0EEB
:1024E000466E0C0E476E7C0E486E010E0001646F46
:1024F000020E656F040E666F080E676F686B696B7E
:102500006A6B6B6B6C6B6D6B6E6B6F6B706B716B07
:10251000726B736B746B756B766B776B786B796BB7
:102520007A6B7B6B7C6B7D6B7E6B7F6B806B816B67
:10253000826B836B846B856B866B876B886B896B17
:102540008A6B9B8CFF0E0F01486FC29CC29E495143
:10255000E00B1D09496FC150C00B0309C16EC19E3C
:10256000C280C28EC282C2B2FED7C29E850ED56E16
:10257000C00EF212958083B011D0F28A4A6A496A7D
:102580004AC04CF049C04BF04CC052F04BC051F027
:102590000001618568EC08F061A7FCD7000161B516
:1025A00021D0240E016EC250C30B0110C26EC28234
:1025B000C2B2FED7C4CF8BF08D6BC4CF8CF08F6BC3
:1025C0008E6B916B9069936B010E926F956B640E9D
:1025D000946FA4EC09F002C056F001C055F0FFEF73
:1025E0000BF027D1240E016EC250C30B0110C26E36
:1025F000626B6369606B5F6A586A576A585221E17F
:10260000575013081EE3C282C2B2FED7C4505E6A9E
:102610005D6E5E5212E15D50FE080FE35E5203E113
:102620005D50625D03E25DC062F007D05E5205E17D
:1026300063515D5C02E25DC063F0572AD8B4582A4A
:10264000DDD76351625D5F6E606B60C08DF05FC00F
:102650008CF08F6B8E6B916B9069936B926B956B1B
:10266000500E946FA4EC09F002C054F001C053F076
:10267000545203E15350500803E2036A500E03D052
:1026800054C003F05350536E03C054F0FBEC09F0F8
:10269000545208E15350100805E353C08CF08D6B81
:1026A0005FEC0CF0545235E15350200832E3100E29
:1026B0008C6F8D6B5FEC0CF0D8905430036E533000
:1026C000026EA76F03C0A8F026EC0EF000C08BF0DE
:1026D00001C08CF002C08DF003C08EF003C092F0F8
:1026E00002C091F001C090F000C08FF05BDE03C02B
:1026F000A6F002C0A5F001C0A4F000C0A3F07CECDD
:102700000EF001C08BF001C08CF0010E8D6F5FECFC
:102710000CF0545242E1535030083FE3100E8C6FDE
:102720008D6B5FEC0CF0100E8C6F010E8D6F5FECFB
:102730000CF054C09BF053C09AF09D6B030E9C6F3D
:1027400083EC09F002C003F001C0A7F002C0A8F0BA
:1027500026EC0EF000C08BF001C08CF002C08DF0B2
:1027600003C08EF003C092F002C091F001C090F05F
:1027700000C08FF017DE03C0A6F002C0A5F001C0B4
:10278000A4F000C0A3F07CEC0EF001C08BF001C0FF
:102790008CF0020E8D6F5FEC0CF054524AE15350F6
:1027A000400847E3545203E153503F0842E2100E01
:1027B0008C6F8D6B5FEC0CF0100E8C6F010E8D6FBB
:1027C0005FEC0CF0100E8C6F020E8D6F5FEC0CF056
:1027D0005430036E5330026E033202323F0E031642
:1027E00002C0A7F003C0A8F026EC0EF000C08BF0EA
:1027F00001C08CF002C08DF003C08EF003C092F0D7
:1028000002C091F001C090F000C08FF0CBDD03C09A
:10281000A6F002C0A5F001C0A4F000C0A3F07CECBB
:102820000EF001C08BF001C08CF0030E8D6F5FECD9
:082830000CF00F019FD603001C
:020000040001F9
:08FFF8009AF73DFF61F880F962
:00000001FF
;PIC18F47J53
;CRC=541E  CREATED="06-dic.-15 10:20"
